:100000000C9472000C9493000C9493000C94930045
:100010000C9493000C9493000C9493000C94930014
:100020000C9493000C9493000C9493000C94930004
:100030000C9493000C9493000C9493000C949300F4
:100040000C9493000C9493000C9493000C949300E4
:100050000C9493000C9493000C9493000C949300D4
:100060000C9493000C9493000C9493000C949300C4
:100070000C9493000C9493000C9493000C949300B4
:100080000C9493000C9493000C9493000C949300A4
:100090000C9493000C9493000C9493000C94930094
:1000A0000C9493000C9493000C9493000C94930084
:1000B0000C9493000C9493000C9493000C94930074
:1000C0000C9493000C9493000C9493000C94730183
:1000D0000C9493000C94CC010C9493000C9493001A
:1000E0000C94930011241FBECFEFD1E2DEBFCDBF31
:1000F00000E00CBF12E0A0E0B2E0E2ECF7E000E0CC
:100100000BBF02C007900D92AA33B107D9F713E0D5
:10011000AAE3B2E001C01D92AC37B107E1F70E943B
:100120009C000C94DF030C9400000E9463010E9469
:1001300084030E9478020895CF93DF93F8940E947D
:100140009500789481E00E94570281E061E00E946E
:10015000C60280E092E00E94B90288EE93E0C4E11A
:10016000D1E004C0FE013197F1F701970097D1F774
:1001700080913A02813009F0A3C010923A02809136
:1001800015038433C1F0853338F4823371F083333F
:1001900080F48133D1F40BC0863389F0863368F064
:1001A000873379F0883389F40EC08FE30FC08FE175
:1001B0000DC08FE50BC08FE709C08FE907C08FEB3B
:1001C00005C08FED03C08FEF01C080E09091140354
:1001D0009C3479F19D3430F49234B1F0963409F0C6
:1001E00062C006C09235D1F1933509F05CC04FC0B2
:1001F0000E94AD0381E00E94570281E061E00E940D
:10020000C6028CE092E00BC00E94B40381E00E9421
:10021000570281E061E00E94C60285E192E00E94FF
:10022000B9024091150350E04053504081E06AE02C
:1002300029C00E94BB0381E00E94570281E061E077
:100240000E94C6028EE192E00E94B902409115031D
:1002500050E04053504081E06CE014C00E94C20363
:1002600081E00E94570281E061E00E94C60289E2BB
:1002700092E00E94B9024091150350E04053504073
:1002800081E06DE021E030E00E94E20219C00E94AE
:10029000C90381E00E94570281E061E00E94C6022A
:1002A00085E392E00BC00E94C90381E00E945702DF
:1002B00081E061E00E94C60280E092E00E94B90203
:1002C00088EE93E04FCFE1EDF0E010821092D00085
:1002D00086E08093D20087E48093D4001092D5000A
:1002E00088ED808308951F920F920FB60F920BB680
:1002F0000F9211242F933F934F935F938F939F936C
:10030000AF93BF93EF93FF932091D6002A3071F003
:100310008091100390911103FC01ED55FD4F208356
:100320000196909311038093100325C08091A3023E
:100330008732E9F08334D9F08434C9F081E08093C6
:100340003A02409110035091110320E030E00AC0BE
:10035000F901EC5EFC4FD901AD55BD4F8C91808306
:100360002F5F3F4F2417350798F3409309031092EE
:10037000110310921003FF91EF91BF91AF919F91E4
:100380008F915F914F913F912F910F900BBE0F90E6
:100390000FBE0F901F9018951F920F920FB60F92DD
:1003A0000BB60F9211242F933F938F939F93EF934C
:1003B000FF9320910E0330910F0380910A039091D7
:1003C0000B038217930730F0F901E55CFD4F808144
:1003D0008093D6002F5F3F4F30930F0320930E037F
:1003E000FF91EF919F918F913F912F910F900BBEB5
:1003F0000F900FBE0F901F90189521E420933B02A1
:1004000084E580933C0282E480933D028FE38093F5
:100410003E028DE080933F0284E090E090930B03D6
:1004200080930A0381E090E090930F0380930E0382
:100430002093D60081E080939F0208958CEC9AE08F
:10044000FC013197F1F74098419840E348B9429A4E
:1004500020E036E3F9013197F1F74298FC0131973A
:10046000F1F74098419848B9429AF9013197F1F76C
:100470004298FC013197F1F74098419848B9429A67
:10048000F9013197F1F742980197F1F740984198B7
:1004900080E288B9429AC9010197F1F7429808951C
:1004A00087B1876F87B988B1807888B9089598B186
:1004B0009F7098B928B1982F907F922B98B9409847
:1004C0004198429A20E036E3F9013197F1F74298DA
:1004D00098B19F7098B998B18295807F982B98B900
:1004E00040984198429AC9010197F1F742980895BE
:1004F00087B1876F87B988B1807888B90E941E025A
:100500008CEC9AE00197F1F788E20E94570281E0B3
:100510000E94570286E00E9457028EE00E94570216
:1005200080E80E945702089598B19F7098B928B149
:10053000982F907F922B98B9409A4198429A20E048
:1005400036E3F9013197F1F7429898B19F7098B965
:1005500098B18295807F982B98B9409A4198429A99
:10056000C9010197F1F74298089580E80E94570267
:100570000895CF93DF93EC0103C00E94940221966B
:1005800088818823D1F7DF91CF910895823069F077
:10059000833018F48130A9F405C0833049F08430E9
:1005A00081F40BC0862F815805C0862F815402C06C
:1005B000862F8D560E9457020895862F8D520E94D5
:1005C000570208950F931F93CF93DF938A01E90198
:1005D0001092A202882311F0662319F40E94B5023A
:1005E00002C00E94C602C530D10521F08091A2024E
:1005F000813081F4C80160E177E20E94CB03CB0136
:10060000C0969093A1028093A0020E94940281E080
:100610008093A202C430D10521F08091A2028130E2
:10062000C1F4C80168EE73E00E94CB03CB01609374
:100630000703909308036AE070E00E94CB03C09622
:1006400090937B0380937A030E94940281E08093CD
:10065000A202C330D10521F08091A2028130C1F401
:10066000C80164E670E00E94CB03CB0160930703EE
:10067000909308036AE070E00E94CB03C0969093C9
:100680001303809312030E94940281E08093A202DC
:10069000C230D10521F08091A2028130C1F4C8019D
:1006A0006AE070E00E94CB03CB0160930703909354
:1006B00008036AE070E00E94CB03C09690930D039C
:1006C00080930C030E94940281E08093A202C130C7
:1006D000D10521F08091A202813061F4C8016AE065
:1006E00070E00E94CB03C0969093790380937803C7
:1006F0000E94940226971CF085E40E949402DF91E8
:10070000CF911F910F91089588E180930A01809302
:100710000B01E1E2F1E0108289EA809320018BE095
:1007200080838FE081B912B8089588E180930A012F
:1007300080930B0108958FE081B912B80895E1E22A
:10074000F1E0108289EA809320018BE08083089594
:100750008093280160932A01089580932801809353
:100760002A0186E082B908958093280180932A01A6
:1007700089E082B908958093280180932A0185E059
:1007800082B908958093280180932A018AE082B972
:10079000089512B80895AA1BBB1B51E107C0AA1FF8
:1007A000BB1FA617B70710F0A61BB70B881F991F12
:1007B0005A95A9F780959095BC01CD010895F894BC
:0207C000FFCF69
:1007C200414E44524F49445F46423500464F5257CC
:1007D2004152443A00524556455253453A004C451F
:1007E2004654205455524E3A0052494748542054D8
:0A07F20055524E3A0053544F500088
:00000001FF
