:100000000C9472000C9493000C9493000C94930045
:100010000C9493000C9493000C9493000C94930014
:100020000C9493000C9493000C9493000C94930004
:100030000C9493000C9493000C9493000C949300F4
:100040000C9493000C9493000C9493000C949300E4
:100050000C9493000C9493000C9493000C949300D4
:100060000C9493000C9493000C9493000C949300C4
:100070000C9493000C9493000C9493000C949300B4
:100080000C9493000C9493000C9493000C949300A4
:100090000C9493000C9493000C9493000C94930094
:1000A0000C9493000C9493000C9493000C94930084
:1000B0000C9493000C9493000C9493000C94930074
:1000C0000C9493000C9493000C9493000C94730183
:1000D0000C9493000C94C8010C9493000C9493001E
:1000E0000C94930011241FBECFEFD1E2DEBFCDBF31
:1000F00000E00CBF12E0A0E0B2E0EAEBF7E000E0C5
:100100000BBF02C007900D92A034B107D9F713E0DE
:10011000A0E4B2E001C01D92A238B107E1F70E944D
:100120009C000C94DB030C9400000E9463010E946D
:1001300080030E9474020895CF93DF93F8940E9485
:100140009500789481E00E94530281E061E00E9472
:10015000C20280E092E00E94B50288EE93E0C4E122
:10016000D1E004C0FE013197F1F701970097D1F774
:1001700080914002813009F0A3C01092400280912A
:100180001B038433C1F0853338F4823371F0833339
:1001900080F48133D1F40BC0863389F0863368F064
:1001A000873379F0883389F40EC08FE30FC08FE175
:1001B0000DC08FE50BC08FE709C08FE907C08FEB3B
:1001C00005C08FED03C08FEF01C080E090911A034E
:1001D0009C3479F19D3430F49234B1F0963409F0C6
:1001E00062C006C09235D1F1933509F05CC04FC0B2
:1001F0000E94A90381E00E94530281E061E00E9415
:10020000C2028CE092E00BC00E94B00381E00E9429
:10021000530281E061E00E94C20285E192E00E9407
:10022000B50240911B0350E04053504081E06AE02A
:1002300029C00E94B70381E00E94530281E061E07F
:100240000E94C2028EE192E00E94B50240911B031F
:1002500050E04053504081E06CE014C00E94BE0367
:1002600081E00E94530281E061E00E94C20289E2C3
:1002700092E00E94B50240911B0350E04053504071
:1002800081E06DE021E030E00E94DE0219C00E94B2
:10029000C50381E00E94530281E061E00E94C20236
:1002A00085E392E00BC00E94C50381E00E945302E7
:1002B00081E061E00E94C2028AE392E00E94B502FE
:1002C00088EE93E04FCFE1EDF0E010821092D00085
:1002D00086E08093D20087E48093D4001092D5000A
:1002E00088E9808308951F920F920FB60F920BB684
:1002F0000F9211242F933F934F935F938F939F936C
:10030000AF93BF93EF93FF932091D6002A3071F003
:100310008091160390911703FC01E755FD4F208350
:100320000196909317038093160321C08091A90230
:100330008732C9F081E080934002409116035091CA
:10034000170320E030E00AC0F901E65EFC4FD90156
:10035000A755BD4F8C9180832F5F3F4F24173507E2
:1003600098F340930F031092170310921603FF9116
:10037000EF91BF91AF919F918F915F914F913F917D
:100380002F910F900BBE0F900FBE0F901F901895DE
:100390001F920F920FB60F920BB60F9211242F934C
:1003A0003F938F939F93EF93FF932091140330918A
:1003B000150380911003909111038217930730F079
:1003C000F901EF5BFD4F80818093D6002F5F3F4F97
:1003D0003093150320931403FF91EF919F918F9118
:1003E0003F912F910F900BBE0F900FBE0F901F905B
:1003F000189521E42093410284E58093420282E42F
:10040000809343028FE3809344028DE08093450202
:1004100084E090E0909311038093100381E090E0DA
:1004200090931503809314032093D60081E080936A
:10043000A50208958CEC9AE0FC013197F1F7409801
:10044000419840E348B9429A20E036E3F9013197F8
:10045000F1F74298FC013197F1F74098419848B97B
:10046000429AF9013197F1F74298FC013197F1F77F
:100470004098419848B9429AF9013197F1F742986A
:100480000197F1F74098419880E288B9429AC901F2
:100490000197F1F74298089587B1876F87B988B1BE
:1004A000807888B9089598B19F7098B928B1982F2D
:1004B000907F922B98B940984198429A20E036E379
:1004C000F9013197F1F7429898B19F7098B998B1B6
:1004D0008295807F982B98B940984198429AC9019B
:1004E0000197F1F74298089587B1876F87B988B16E
:1004F000807888B90E941A028CEC9AE00197F1F793
:1005000088E20E94530281E00E94530286E00E942A
:1005100053028EE00E94530280E80E945302089525
:1005200098B19F7098B928B1982F907F922B98B965
:10053000409A4198429A20E036E3F9013197F1F769
:10054000429898B19F7098B998B18295807F982B06
:1005500098B9409A4198429AC9010197F1F7429897
:10056000089580E80E9453020895CF93DF93EC0131
:1005700003C00E949002219688818823D1F7DF91E1
:10058000CF910895823069F0833018F48130A9F456
:1005900005C0833049F0843081F40BC0862F815828
:1005A00005C0862F815402C0862F8D560E945302AB
:1005B0000895862F8D520E94530208950F931F9322
:1005C000CF93DF938A01E9011092A802882311F0EA
:1005D000662319F40E94B10202C00E94C202C53013
:1005E000D10521F08091A802813081F4C80160E139
:1005F00077E20E94C703CB01C0969093A702809335
:10060000A6020E94900281E08093A802C430D10526
:1006100021F08091A8028130C1F4C80168EE73E036
:100620000E94C703CB0160930D0390930E036AE011
:1006300070E00E94C703C09690938103809380036B
:100640000E94900281E08093A802C330D10521F07E
:100650008091A8028130C1F4C80164E670E00E9474
:10066000C703CB0160930D0390930E036AE070E023
:100670000E94C703C09690931903809318030E94A9
:10068000900281E08093A802C230D10521F08091D0
:10069000A8028130C1F4C8016AE070E00E94C7037B
:1006A000CB0160930D0390930E036AE070E00E940B
:1006B000C703C09690931303809312030E94900285
:1006C00081E08093A802C130D10521F08091A80279
:1006D000813061F4C8016AE070E00E94C703C096EF
:1006E00090937F0380937E030E94900226971CF0D4
:1006F00085E40E949002DF91CF911F910F910895A0
:1007000088E180930A0180930B01E1E2F1E010821D
:1007100089EA809320018BE080838FE081B912B851
:10072000089588E180930A0180930B0108958FE07A
:1007300081B912B80895E1E2F1E0108289EA80936C
:1007400020018BE0808308958093280160932A0123
:1007500008958093280180932A0186E082B9089544
:100760008093280180932A0189E082B908958093BB
:10077000280180932A0185E082B908958093280199
:1007800080932A018AE082B9089512B80895AA1BBD
:10079000BB1B51E107C0AA1FBB1FA617B70710F06C
:1007A000A61BB70B881F991F5A95A9F7809590959E
:0A07B000BC01CD010895F894FFCFBD
:1007BA00414E44524F49445F46423500464F5257D4
:1007CA004152443A00524556455253453A004C4527
:1007DA004654205455524E3A0052494748542054E0
:1007EA0055524E3A0053544F50004552524F520000
:00000001FF
